{
  "transactions": [
    {
      "hash": "0xc9ce13ae9b14e1fdf6ca800b071ad8ac38cd6ebb533f92754f113076d41d4666",
      "transactionType": "CALL",
      "contractName": null,
      "contractAddress": "0x779877a7b0d9e8603169ddbd7836e478b4624789",
      "function": "transferAndCall(address,uint256,bytes)",
      "arguments": [
        "0x9DdfaCa8183c41ad55329BdeeD9F6A8d53168B1B",
        "3000000000000000000",
        "0xd2fb4b665e07a9c31958590c993a7b3924d504e183d34f2032c95babdb729577"
      ],
      "transaction": {
        "from": "0x7a9aa41d4f235fcf4858373f1e3d66fe7edcfc50",
        "to": "0x779877a7b0d9e8603169ddbd7836e478b4624789",
        "gas": "0x1c1ff",
        "value": "0x0",
        "input": "0x4000aea00000000000000000000000009ddfaca8183c41ad55329bdeed9f6a8d53168b1b00000000000000000000000000000000000000000000000029a2241af62c000000000000000000000000000000000000000000000000000000000000000000600000000000000000000000000000000000000000000000000000000000000020d2fb4b665e07a9c31958590c993a7b3924d504e183d34f2032c95babdb729577",
        "nonce": "0x0",
        "chainId": "0xaa36a7"
      },
      "additionalContracts": [],
      "isFixedGasLimit": false
    }
  ],
  "receipts": [
    {
      "status": "0x1",
      "cumulativeGasUsed": "0xa79cbd",
      "logs": [
        {
          "address": "0x779877a7b0d9e8603169ddbd7836e478b4624789",
          "topics": [
            "0xddf252ad1be2c89b69c2b068fc378daa952ba7f163c4a11628f55a4df523b3ef",
            "0x0000000000000000000000007a9aa41d4f235fcf4858373f1e3d66fe7edcfc50",
            "0x0000000000000000000000009ddfaca8183c41ad55329bdeed9f6a8d53168b1b"
          ],
          "data": "0x00000000000000000000000000000000000000000000000029a2241af62c0000",
          "blockHash": "0x39af52b80cffa81e3ed5b739b256ca4ecf5581172bd8e1d27a01dc5ab43dcb91",
          "blockNumber": "0x91889a",
          "blockTimestamp": "0x690613a4",
          "transactionHash": "0xc9ce13ae9b14e1fdf6ca800b071ad8ac38cd6ebb533f92754f113076d41d4666",
          "transactionIndex": "0x3f",
          "logIndex": "0x5a",
          "removed": false
        },
        {
          "address": "0x779877a7b0d9e8603169ddbd7836e478b4624789",
          "topics": [
            "0xe19260aff97b920c7df27010903aeb9c8d2be5d310a2c67824cf3f15396e4c16",
            "0x0000000000000000000000007a9aa41d4f235fcf4858373f1e3d66fe7edcfc50",
            "0x0000000000000000000000009ddfaca8183c41ad55329bdeed9f6a8d53168b1b"
          ],
          "data": "0x00000000000000000000000000000000000000000000000029a2241af62c000000000000000000000000000000000000000000000000000000000000000000400000000000000000000000000000000000000000000000000000000000000020d2fb4b665e07a9c31958590c993a7b3924d504e183d34f2032c95babdb729577",
          "blockHash": "0x39af52b80cffa81e3ed5b739b256ca4ecf5581172bd8e1d27a01dc5ab43dcb91",
          "blockNumber": "0x91889a",
          "blockTimestamp": "0x690613a4",
          "transactionHash": "0xc9ce13ae9b14e1fdf6ca800b071ad8ac38cd6ebb533f92754f113076d41d4666",
          "transactionIndex": "0x3f",
          "logIndex": "0x5b",
          "removed": false
        },
        {
          "address": "0x9ddfaca8183c41ad55329bdeed9f6a8d53168b1b",
          "topics": [
            "0x1ced9348ff549fceab2ac57cd3a9de38edaaab274b725ee82c23e8fc8c4eec7a",
            "0xd2fb4b665e07a9c31958590c993a7b3924d504e183d34f2032c95babdb729577"
          ],
          "data": "0x000000000000000000000000000000000000000000000000000000000000000000000000000000000000000000000000000000000000000029a2241af62c0000",
          "blockHash": "0x39af52b80cffa81e3ed5b739b256ca4ecf5581172bd8e1d27a01dc5ab43dcb91",
          "blockNumber": "0x91889a",
          "blockTimestamp": "0x690613a4",
          "transactionHash": "0xc9ce13ae9b14e1fdf6ca800b071ad8ac38cd6ebb533f92754f113076d41d4666",
          "transactionIndex": "0x3f",
          "logIndex": "0x5c",
          "removed": false
        }
      ],
      "logsBloom": "0x00000004000000000000000000000000000000000020000000000000020000000004010000000000000000000000000000000000000000000004000000000000000000000000000000000008000000000000000000000000000020000020000008000000000000000000000000000000000000000000000000000010000040000000000000000000000000010000800000000020000000000000000000000000000000000000000000000000010000000000000000000000000004000000000000000002040000000000000000000000000000000000000140000000000000000010000000000000800000000000000000000800000000000000000000000000",
      "type": "0x2",
      "transactionHash": "0xc9ce13ae9b14e1fdf6ca800b071ad8ac38cd6ebb533f92754f113076d41d4666",
      "transactionIndex": "0x3f",
      "blockHash": "0x39af52b80cffa81e3ed5b739b256ca4ecf5581172bd8e1d27a01dc5ab43dcb91",
      "blockNumber": "0x91889a",
      "gasUsed": "0x133b1",
      "effectiveGasPrice": "0xf4240",
      "from": "0x7a9aa41d4f235fcf4858373f1e3d66fe7edcfc50",
      "to": "0x779877a7b0d9e8603169ddbd7836e478b4624789",
      "contractAddress": null
    }
  ],
  "libraries": [],
  "pending": [],
  "returns": {},
  "timestamp": 1762005925,
  "chain": 11155111,
  "commit": "71f4d0c"
}