{
  "transactions": [
    {
      "hash": "0xc2087284e2dff6103061e996b49f950cf15f00fcef5cd8c0c5282e6cf1e0b5d4",
      "transactionType": "CALL",
      "contractName": null,
      "contractAddress": "0x779877a7b0d9e8603169ddbd7836e478b4624789",
      "function": "transferAndCall(address,uint256,bytes)",
      "arguments": [
        "0x9DdfaCa8183c41ad55329BdeeD9F6A8d53168B1B",
        "3000000000000000000",
        "0x080b12194e47e21ab9bdfd8444cbc9780f06cc3e6cf785bd9518ad50f9f2ec00"
      ],
      "transaction": {
        "from": "0x7a9aa41d4f235fcf4858373f1e3d66fe7edcfc50",
        "to": "0x779877a7b0d9e8603169ddbd7836e478b4624789",
        "gas": "0x1a8ee",
        "value": "0x0",
        "input": "0x4000aea00000000000000000000000009ddfaca8183c41ad55329bdeed9f6a8d53168b1b00000000000000000000000000000000000000000000000029a2241af62c000000000000000000000000000000000000000000000000000000000000000000600000000000000000000000000000000000000000000000000000000000000020080b12194e47e21ab9bdfd8444cbc9780f06cc3e6cf785bd9518ad50f9f2ec00",
        "nonce": "0x3",
        "chainId": "0xaa36a7"
      },
      "additionalContracts": [],
      "isFixedGasLimit": false
    }
  ],
  "receipts": [
    {
      "status": "0x1",
      "cumulativeGasUsed": "0x5d6dc5",
      "logs": [
        {
          "address": "0x779877a7b0d9e8603169ddbd7836e478b4624789",
          "topics": [
            "0xddf252ad1be2c89b69c2b068fc378daa952ba7f163c4a11628f55a4df523b3ef",
            "0x0000000000000000000000007a9aa41d4f235fcf4858373f1e3d66fe7edcfc50",
            "0x0000000000000000000000009ddfaca8183c41ad55329bdeed9f6a8d53168b1b"
          ],
          "data": "0x00000000000000000000000000000000000000000000000029a2241af62c0000",
          "blockHash": "0x8ff2825e5b240488847b7bf0d6950d56c68e9c1f4764b57d0fc97c948311c78b",
          "blockNumber": "0x91911d",
          "blockTimestamp": "0x690679c8",
          "transactionHash": "0xc2087284e2dff6103061e996b49f950cf15f00fcef5cd8c0c5282e6cf1e0b5d4",
          "transactionIndex": "0x48",
          "logIndex": "0x44",
          "removed": false
        },
        {
          "address": "0x779877a7b0d9e8603169ddbd7836e478b4624789",
          "topics": [
            "0xe19260aff97b920c7df27010903aeb9c8d2be5d310a2c67824cf3f15396e4c16",
            "0x0000000000000000000000007a9aa41d4f235fcf4858373f1e3d66fe7edcfc50",
            "0x0000000000000000000000009ddfaca8183c41ad55329bdeed9f6a8d53168b1b"
          ],
          "data": "0x00000000000000000000000000000000000000000000000029a2241af62c000000000000000000000000000000000000000000000000000000000000000000400000000000000000000000000000000000000000000000000000000000000020080b12194e47e21ab9bdfd8444cbc9780f06cc3e6cf785bd9518ad50f9f2ec00",
          "blockHash": "0x8ff2825e5b240488847b7bf0d6950d56c68e9c1f4764b57d0fc97c948311c78b",
          "blockNumber": "0x91911d",
          "blockTimestamp": "0x690679c8",
          "transactionHash": "0xc2087284e2dff6103061e996b49f950cf15f00fcef5cd8c0c5282e6cf1e0b5d4",
          "transactionIndex": "0x48",
          "logIndex": "0x45",
          "removed": false
        },
        {
          "address": "0x9ddfaca8183c41ad55329bdeed9f6a8d53168b1b",
          "topics": [
            "0x1ced9348ff549fceab2ac57cd3a9de38edaaab274b725ee82c23e8fc8c4eec7a",
            "0x080b12194e47e21ab9bdfd8444cbc9780f06cc3e6cf785bd9518ad50f9f2ec00"
          ],
          "data": "0x000000000000000000000000000000000000000000000000000000000000000000000000000000000000000000000000000000000000000029a2241af62c0000",
          "blockHash": "0x8ff2825e5b240488847b7bf0d6950d56c68e9c1f4764b57d0fc97c948311c78b",
          "blockNumber": "0x91911d",
          "blockTimestamp": "0x690679c8",
          "transactionHash": "0xc2087284e2dff6103061e996b49f950cf15f00fcef5cd8c0c5282e6cf1e0b5d4",
          "transactionIndex": "0x48",
          "logIndex": "0x46",
          "removed": false
        }
      ],
      "logsBloom": "0x00000004000000000000000000000000000000000020000000000000020000000000000000000000000000000000000004000000000000000004000000000000000000000000000000000008000000000000000000000000000020000020000008000000000000000000000000000000000000000000000000000010000040000000000000000000000000010000800000000020000000000000000000000000000000080000000000000000010000000000000000000000000004000000000000000002000000000000000000000000000000000000000140000000000400000010000000000000800000000000000000000800000000000000000000000000",
      "type": "0x2",
      "transactionHash": "0xc2087284e2dff6103061e996b49f950cf15f00fcef5cd8c0c5282e6cf1e0b5d4",
      "transactionIndex": "0x48",
      "blockHash": "0x8ff2825e5b240488847b7bf0d6950d56c68e9c1f4764b57d0fc97c948311c78b",
      "blockNumber": "0x91911d",
      "gasUsed": "0x133a5",
      "effectiveGasPrice": "0xf4248",
      "from": "0x7a9aa41d4f235fcf4858373f1e3d66fe7edcfc50",
      "to": "0x779877a7b0d9e8603169ddbd7836e478b4624789",
      "contractAddress": null
    }
  ],
  "libraries": [],
  "pending": [],
  "returns": {},
  "timestamp": 1762032073,
  "chain": 11155111,
  "commit": "71f4d0c"
}