{
  "transactions": [
    {
      "hash": "0x25ffa96985d504e42ffe797da2f05bb647dc5b22bb1f542bdee8bde7055eb0bd",
      "transactionType": "CALL",
      "contractName": null,
      "contractAddress": "0x9ddfaca8183c41ad55329bdeed9f6a8d53168b1b",
      "function": "addConsumer(uint256,address)",
      "arguments": [
        "3638063020055532035323122124240924674111890531553669308854212496887458753536",
        "0xf13D09eD3cbdD1C930d4de74808de1f33B6b3D4f"
      ],
      "transaction": {
        "from": "0x7a9aa41d4f235fcf4858373f1e3d66fe7edcfc50",
        "to": "0x9ddfaca8183c41ad55329bdeed9f6a8d53168b1b",
        "gas": "0x20182",
        "value": "0x0",
        "input": "0xbec4c08c080b12194e47e21ab9bdfd8444cbc9780f06cc3e6cf785bd9518ad50f9f2ec00000000000000000000000000f13d09ed3cbdd1c930d4de74808de1f33b6b3d4f",
        "nonce": "0x5",
        "chainId": "0xaa36a7"
      },
      "additionalContracts": [],
      "isFixedGasLimit": false
    }
  ],
  "receipts": [
    {
      "status": "0x1",
      "cumulativeGasUsed": "0x5668a3",
      "logs": [
        {
          "address": "0x9ddfaca8183c41ad55329bdeed9f6a8d53168b1b",
          "topics": [
            "0x1e980d04aa7648e205713e5e8ea3808672ac163d10936d36f91b2c88ac1575e1",
            "0x080b12194e47e21ab9bdfd8444cbc9780f06cc3e6cf785bd9518ad50f9f2ec00"
          ],
          "data": "0x000000000000000000000000f13d09ed3cbdd1c930d4de74808de1f33b6b3d4f",
          "blockHash": "0x9f47bf33536fd1e49601697fb370097618650fde7d4ff5d4f62abfb30cc14ad0",
          "blockNumber": "0x92681e",
          "blockTimestamp": "0x6910f1ac",
          "transactionHash": "0x25ffa96985d504e42ffe797da2f05bb647dc5b22bb1f542bdee8bde7055eb0bd",
          "transactionIndex": "0x34",
          "logIndex": "0x33",
          "removed": false
        }
      ],
      "logsBloom": "0x00000000000000000000000000000080000000000020000000000000000000000000000000000000000000000000000004000000000000000000000000000000000000000000000000000000000000000000000000000001000000000000000008000000000000000000000000000000000000000000000000002000000000000000000000000000000000010000000000000000000000000000000000000000000000080000000000000000000000000000000000000000000000000000000000000000000000000000000000000000000000000000000000000000000400000000000000000000000000000000000000000000000000000000000000000000",
      "type": "0x2",
      "transactionHash": "0x25ffa96985d504e42ffe797da2f05bb647dc5b22bb1f542bdee8bde7055eb0bd",
      "transactionIndex": "0x34",
      "blockHash": "0x9f47bf33536fd1e49601697fb370097618650fde7d4ff5d4f62abfb30cc14ad0",
      "blockNumber": "0x92681e",
      "gasUsed": "0x173c6",
      "effectiveGasPrice": "0x10c8e5",
      "from": "0x7a9aa41d4f235fcf4858373f1e3d66fe7edcfc50",
      "to": "0x9ddfaca8183c41ad55329bdeed9f6a8d53168b1b",
      "contractAddress": null
    }
  ],
  "libraries": [],
  "pending": [],
  "returns": {},
  "timestamp": 1762718124875,
  "chain": 11155111,
  "commit": "71f4d0c"
}